:100000000C9434000C945C000C945C000C945C0028
:100010000C945C000C945C000C945C000C945C00F0
:100020000C945C000C945C000C945C000C945C00E0
:100030000C945C000C945C000C945C000C945C00D0
:100040000C945C000C945C000C945C000C945C00C0
:100050000C945C000C945C000C945C000C945C00B0
:100060000C945C000C945C0011241FBECFEFD8E010
:10007000DEBFCDBF0E9440000C945100F894FFCF2A
:100080008FEF8AB91BB814B885B983B18BB92FEF3C
:1000900080E792E0215080409040E1F700C00000EE
:0200A000F4CF9B
:1000A200EC010E9461000E946000CE010E94620089
:0600B200CE010E945E0079
:0400B8000C940000A4
:0400BC000E943E0060
:0200C0000895A1
:0200C20008959F
:0200C40008959D
:00000001FF
